{
  "contractName": "Migrations",
  "abi": [
    {
      "constant": true,
      "inputs": [],
      "name": "last_completed_migration",
      "outputs": [
        {
          "name": "",
          "type": "uint256"
        }
      ],
      "payable": false,
      "stateMutability": "view",
      "type": "function"
    },
    {
      "constant": true,
      "inputs": [],
      "name": "owner",
      "outputs": [
        {
          "name": "",
          "type": "address"
        }
      ],
      "payable": false,
      "stateMutability": "view",
      "type": "function"
    },
    {
      "constant": false,
      "inputs": [
        {
          "name": "completed",
          "type": "uint256"
        }
      ],
      "name": "setCompleted",
      "outputs": [],
      "payable": false,
      "stateMutability": "nonpayable",
      "type": "function"
    }
  ],
  "bytecode": "0x608060405260008054600160a060020a0319163317905534801561002257600080fd5b506101eb806100326000396000f3fe6080604052600436106100565763ffffffff7c0100000000000000000000000000000000000000000000000000000000600035041663445df0ac811461005b5780638da5cb5b14610082578063fdacd576146100c0575b600080fd5b34801561006757600080fd5b506100706100ec565b60408051918252519081900360200190f35b34801561008e57600080fd5b506100976100f2565b6040805173ffffffffffffffffffffffffffffffffffffffff9092168252519081900360200190f35b3480156100cc57600080fd5b506100ea600480360360208110156100e357600080fd5b503561010e565b005b60015481565b60005473ffffffffffffffffffffffffffffffffffffffff1681565b60005473ffffffffffffffffffffffffffffffffffffffff1633146101ba57604080517f08c379a000000000000000000000000000000000000000000000000000000000815260206004820152603360248201527f546869732066756e6374696f6e206973207265737472696374656420746f207460448201527f686520636f6e74726163742773206f776e657200000000000000000000000000606482015290519081900360840190fd5b60015556fea165627a7a723058206b58200f65ace2b442aad8be7774cb0ff7d6b641b7fd9be853581f8f8678612a0029",
  "source": "// SPDX-License-Identifier: MIT\npragma solidity >=0.4.22 <0.9.0;\n\ncontract Migrations {\n\taddress public owner = msg.sender;\n\tuint public last_completed_migration;\n\n\tmodifier restricted() {\n\t\trequire(\n\t\t\tmsg.sender == owner,\n\t\t\t\"This function is restricted to the contract's owner\"\n\t\t);\n\t\t_;\n\t}\n\n\tfunction setCompleted(uint completed) public restricted {\n\t\tlast_completed_migration = completed;\n\t}\n}\n",
  "sourcePath": "F:/Projects/Blockchain/fake-products/contracts/Migrations.sol",
  "compiler": {
    "name": "solc",
    "version": "0.5.0+commit.1d4f565a.Emscripten.clang"
  },
  "schemaVersion": "3.4.1",
  "updatedAt": "2021-07-12T11:31:46.756Z",
  "networkType": "ethereum",
  "devdoc": {
    "methods": {}
  },
  "userdoc": {
    "methods": {}
  }
}